:020000040800F2
:10000000D8440020810200082B1B00088719000833
:10001000291B0008B1030008971F0008000000001A
:10002000000000000000000000000000C101000806
:100030004D040008000000001D020008391B0008E4
:100040009B0200089B0200089B0200089B0200081C
:100050009B0200089B0200089B0200089B0200080C
:100060009B0200089B0200089B0200089B020008FC
:100070009B0200089B0200089B0200089B020008EC
:100080009B0200089B0200089B0200089B020008DC
:10009000B50300089B0200089B0200089B020008B1
:1000A0009B020008051C00089B0200089B02000838
:1000B0009B0200089B0200089B0200089B020008AC
:1000C0009B0200089B0200089B0200089B0200089C
:1000D0009B0200089B0200089B0200089B0200088C
:1000E0009B0200089B0200089B0200089B0200087C
:1000F0009B0200089B0200089B0200089B0200086C
:100100009B0200089B0200089B0200089B0200085B
:100110009B0200089B0200089B0200089B0200084B
:100120009B0200089B0200089B0200089B0200083B
:100130009B0200089B0200089B0200089B0200082B
:100140009B0200089B0200089B0200089B0200081B
:100150009B0200089B0200089B0200089B0200080B
:100160009B0200089B0200089B0200089B020008FB
:100170009B0200089B0200089B0200080000000090
:100180009B0200089B0200089B020008D91C000883
:100190009B0200089B0200089B0200089B020008CB
:1001A00000000000000000009B020008DFF80CD0F7
:1001B00000F0ECF80048004725200008D844002053
:1001C0002C4B19680868B0E8F04F80F30988BFF33A
:1001D0006F8F4FF0000080F311887047000000001F
:1001E00008480068006880F308884FF0000080F33A
:1001F000148862B661B6BFF34F8FBFF36F8F00DF15
:1002000000BF00BF08ED00E0DFF80C00016841F41A
:1002100070010160704700BF88ED00E0EFF30980D6
:10022000BFF36F8F134B1A681EF0100F08BF20ED3D
:10023000108A20E9F04F106009B44FF0500080F3AD
:100240001188BFF34F8FBFF36F8F02F0D1FA4FF0D9
:10025000000080F3118809BC19680868B0E8F04F05
:100260001EF0100F08BFB0EC108A80F30988BFF3AE
:100270006F8F704724000020EFF305807047000067
:100280000648804706480047FEE7FEE7FEE7FEE730
:10029000FEE7FEE7FEE7FEE7FEE7FEE7E91B0008F4
:1002A000AD0100082DE9F05F0546002092469B460F
:1002B00088460646814640241BE02846414647467C
:1002C000224600F053F853465A46C01A914110D3C3
:1002D00011461846224600F03AF82D1A67EB01083D
:1002E0004F4622460120002100F031F817EB0009AB
:1002F0004E41201EA4F10104DFDC484631462A4667
:100300004346BDE8F09F40EA01039B0703D009E0A4
:1003100008C9121F08C0042AFAD203E011F8013BF1
:1003200000F8013B521EF9D27047D2B201E000F84A
:10033000012B491EFBD270470022F6E710B5134689
:100340000A4604461946FFF7F0FF204610BD202A52
:1003500004DB203A00FA02F1002070479140C2F11C
:10036000200320FA03F3194390407047202A04DB4E
:10037000203A21FA02F00021704721FA02F3D0401E
:10038000C2F120029140084319467047064C074DC0
:1003900006E0E06840F0010394E807009847103455
:1003A000AC42F6D3FFF706FF342C0008542C0008AB
:1003B000FEE70000014800F0BCB90000DC020020AC
:1003C00010B58AB0002101220446CDE9061203913E
:1003D00004910E20CDE90820009101910291059130
:1003E0006946204600F0AAF820B100F030F80CA0D1
:1003F00001F0D2FD1021204600F02AF820B100F0D3
:1004000026F80BA001F0C8FD204600F0B7FB00283D
:1004100004D00AA001F0C0FD00F019F80AB010BD28
:10042000B9FDC2CBC6F7C9E8D6C3CAA7B0DC000085
:10043000BCA4BBEECAA7B0DC0000000043414E20C4
:10044000BFAAC6F4CAA7B0DC00000000704770471E
:1004500090F82020012A07D0022A05D0416A41F4F1
:100460008021416201207047006842690A4342616D
:1004700000207047F0B590F820500468A468012D62
:1004800005D0022D03D0416A41F4802153E014F0DD
:10049000406F01D1E5004BD5C4F30164022C03D9B0
:1004A000416A41F4000146E00125A5401D608D68C8
:1004B0004FF4C0739DB1CE6835434E6845EAC6051A
:1004C000066803EB0417F5514FF4C275076805EB96
:1004D00004150E697E51097D012905D009E00E88B9
:1004E000CD6845EA4655EBE701684E5946F48076FB
:1004F0004E511179D2F805504FF4C67641EA0525E0
:10050000016806EB04168D511178D2F801204FF4E2
:10051000C47541EA0221026805EB041551510068D7
:1005200003EB0411425842F0010242500020F0BD9A
:10053000416A41F4001141620120F0BD10B590F80C
:100540002020012A07D0022A05D0416A41F48021E7
:100550004162012010BD3B48D0F8002242F0010268
:10056000C0F80022D0F8002222F47C52C0F8002209
:10057000D0F800224B6A42EA0322C0F800220A7D2A
:1005800002F01F0301229A40D0F81C329343C0F8B6
:100590001C32CB69B3B9D0F80C329343C0F80C329B
:1005A0008C894B6864F31F434C6900EBC404C4F8A6
:1005B00040320C890B6864F31F434C6900EBC404A0
:1005C000C4F84432CB69012B16D1D0F80C32134356
:1005D000C0F80C320C884B6864F31F434C6900EB85
:1005E000C404C4F840320C89CB6864F31F434C69DF
:1005F00000EBC404C4F844328B69002BD0F80432F9
:100600000ED01343C0F804320B69002BD0F814321B
:1006100008D01343C0F81432096A012904D008E055
:100620009343EFE79343F5E7D0F81C121143C0F86A
:100630001C12D0F8001221F00101C0F800120020B5
:1006400010BD000000640040704730B590F82040B5
:10065000012C05D0022C03D0416A41F480215DE0D9
:100660000468002955D02469A40754D04FF4D874E5
:10067000056804EB01142D5915F004059560056813
:100680002D594ED0ED08556005682C5904F0020430
:10069000D4604FF4DA74056804EB01142D5905F0A9
:1006A0000F05156105682D59C5F307259561056886
:1006B0002C59240C54614FF4DC72046802EB0112D3
:1006C000A4581C700468A458240A5C700468A458D8
:1006D000240C9C700468A258120EDA704FF4DE727B
:1006E000046802EB0112A4581C710468A458240A7F
:1006F0005C710468A458240C9C710468A258120E02
:10070000DA71006881B1016941F0200101610020C6
:1007100030BDE468A8E7416A41F40011416201205C
:1007200030BD6D0D1560AFE7C16841F02001C160BB
:10073000EDE72DE9F05F0546006800244669D0F832
:1007400004908768D0F80CB0D0F810A0D0F81880CA
:10075000F10748D0F90714D001218160B80703D50B
:10076000284600F038FA0CE0780702D54FF4006410
:1007700007E0380702D54FF4805402E0284600F025
:1007800029FAF80516D529684FF480708860B805F5
:1007900003D5284600F021FA0CE0780502D544F490
:1007A000005407E0380502D544F4804402E02846AE
:1007B00000F012FAF80316D529684FF480308860EB
:1007C000B80303D5284600F00AFA0CE0780302D5F6
:1007D00044F4004407E0380302D544F4803402E0D6
:1007E000284600F0FBF9300707D55FEACB6004D557
:1007F0002968102044F40074C86070074FF008079F
:1008000007D55FEA0B7004D52868C760284600F05A
:100810005FF9B00706D52868C068800702D028466F
:1008200000F058F9700607D55FEACA6004D5296858
:10083000102044F480640861B00607D55FEA0A70AE
:1008400004D528680761284600F094F9F00606D51B
:1008500028680069800702D0284600F08CF9B003B0
:1008600008D55FEAC96005D5296810204860284688
:1008700000F082F9F00307D55FEA097004D5286813
:100880004760284600F0ACF9300446D55FEA49706D
:1008900040D5F00504D55FEAC87001D044F00104EA
:1008A000B00504D55FEA887001D544F002047005F4
:1008B00004D55FEA487001D544F00404300529D519
:1008C00018F0700F26D008F07000402815D006DC14
:1008D000102809D020280AD0302816D10AE0502844
:1008E0000ED0602811D10EE044F008040DE044F071
:1008F00010040AE044F0200407E044F0400404E05F
:1009000044F0800401E044F480742868816921F097
:1009100070018161296804204860002C05D0686A54
:10092000204368622846FFF78FFEBDE8F09F70B550
:10093000040003D094F8200010B104E0012070BD41
:10094000204600F081F82068016821F00201016072
:1009500000F05CFA0546052604E000F057FA401B5B
:100960000A2811D8206840688007F6D420680168FA
:1009700041F00101016000F049FA05460BE000F08A
:1009800045FA401B0A2806D9606A40F400306062CC
:1009900084F82060D2E720684068C007EFD0207E4E
:1009A0000128206801683DD021F080010160607E4F
:1009B00001282068016838D021F040010160A07E44
:1009C00001282068016833D021F020010160E07E19
:1009D0000128206801682ED041F010010160207FBD
:1009E00001282068016829D021F008010160607F9A
:1009F00001282068016824D021F004010160D4E9B5
:100A000002010843D4E90412114308436168491EF6
:100A100008432168C86100206062012084F820003A
:100A2000002070BD41F08001C0E741F04001C5E702
:100A300041F02001CAE721F01001CFE741F00801A1
:100A4000D4E741F00401D9E710B586B0044614217B
:100A50006846FFF771FC1A49206888422DD1194871
:100A60000021026842F000720260006800F000702D
:100A7000059014481038026842F0080202600068CD
:100A8000022200F0080005900320CDE90210CDE914
:100A900000020920049069460B4800F0C7F80022C4
:100AA0001146142000F03AFA142000F029FA074801
:100AB0000068416941F00201416106B010BD0000CB
:100AC0000064004040380240000C0240DC0200207C
:100AD0007047000030B5234A016889B0914204D1C3
:100AE00007AB6A460021FFF7B0FD0098009B401F4E
:100AF000C2B21D491D48A3F50073013B03D0042B6E
:100B000001D0072B16D10378C2EBC2025B1C037025
:100B1000BDF81C3001EB42015BBA8B80BDF81E2092
:100B200052BA0A81BDF8202052BA4A81BDF822206B
:100B300052BA0A730178C82911D1002101700C4DF5
:100B40000A464FF400642146284600F059F9642013
:100B500000F05AF801222146284600F051F909B068
:100B600030BD00000064004004030020100000209D
:100B700000100240704770477047000070B504468F
:100B800090F82000012804D0606A40F400206062E0
:100B900018E0022084F820002068016821F001019B
:100BA000016000F033F905460EE000BF00F02EF9B9
:100BB000401B0A2808D9606A40F4003060620520B2
:100BC00084F82000012070BD20684068C007EDD186
:100BD000606270BD704770477047704770477047DC
:100BE000704790F83510022903D08021416501201B
:100BF0007047052180F835100068016821F0010177
:100C0000016000207047000070B5044600F0FEF857
:100C10000546601C02D004480078044400F0F6F851
:100C2000401BA042FAD370BD140000202DE9F84FFC
:100C300000224FF0010803254FF00F0E0B6808FA51
:100C400002F42340A3426ED14E68012E05D0022E3D
:100C500003D0112E01D0122E12D186684FEA420C19
:100C600005FA0CF7BE43CF6807FA0CF737438760E5
:100C70004668A6430C79C4F300149440344344609E
:100C8000C668570005FA07FC8C6826EA0C06BC40CB
:100C90003443C4604C68022C01D0122C13D1D40808
:100CA00000EB8404A346D4F8209054074FEAD46A9A
:100CB0000EFA0AF629EA06090E6906FA0AF646EA63
:100CC0000906CBF8206004680E7924EA0C0406F0CB
:100CD0000306BE40264306604C68E4006FD53B4CDB
:100CE000266846F480462660246822F0030604F451
:100CF00080440094364C3444A446D4F808489607FF
:100D0000360F0EFA06F7BC43324FB84201D1002726
:100D10002EE0314FB84201D1012729E02F4FB842D0
:100D200002D1022724E04AE02D4FB84201D1032727
:100D30001EE02C4FB84201D1042719E02A4FB842D7
:100D400001D1052714E0294FB84201D106270FE051
:100D5000274FB84201D107270AE0264FB84201D1F8
:100D6000082705E0244FB84201D1092700E00A27EF
:100D7000B7402743CCF80878204E34684F689C432E
:100D8000FF0300D51C4334601C4E361D34684F6889
:100D90009C43BF0300D51C433460184E08363468AA
:100DA0004F689C43FF0200D51C433460134E0C3641
:100DB00034684F689C43BF0200D51C433460521C0A
:100DC000102AFFF43BAFBDE8F88F00004438024022
:100DD00000300140000002400004024000080240D0
:100DE000000C0240001002400014024000180240B3
:100DF000001C02400020024000240240003C014050
:100E00000AB1816170470904FBE70000014880686E
:100E100070470000140000200248816802781144E5
:100E200081607047140000200B4810B5016841F440
:100E300000710160016841F480610160016841F462
:100E400080710160032000F089F8002000F006F8AE
:100E500000F03EF8002010BD003C024010B50146F5
:100E600088B00022192000F059F8192000F048F845
:100E700013480024016841F001010160006805A9E0
:100E800000F001000690684600F014F900F042F905
:100E90000C494000B0FBF1F10C480B4A491E0260BE
:100EA00040F2E732C0E90324C0E9011400F024FB5A
:100EB00010B1012008B010BD044800F039FBF9E77B
:100EC0004438024040420F0000000140A8030020C7
:100ED0000A4808B5016841F480410160006800F4E7
:100EE000804000900548001F016841F0805101607A
:100EF000006800F08050009008BD000044380240B7
:100F0000002809DB00F01F02012191404009800008
:100F100000F1E020C0F8001170470000F0B40E4B63
:100F20001B680C46C3F30223C3F10705042D00D947
:100F30000425191D072901D2002300E0DB1E01262C
:100F400006FA05F1491E214099409E40761E164042
:100F50003143F0BC01F028B80CED00E0064900F088
:100F6000070208684FF6FF03184040EA0220034AD0
:100F700010430860704700000CED00E00000FA0527
:100F80002DE9F0470E46050065D0DFF81481D8F84A
:100F90000000F7B200F00F00B04207D288F80070EE
:100FA000D8F8000000F00F00B04254D128683D4C42
:100FB000810712D5400703D5206840F4E050206037
:100FC0002878000703D5206840F46040206020683E
:100FD000A96820F0F000084320602878C0072DD0D1
:100FE000304968680839012812D0022813D0032834
:100FF00011D00968890700292DDA216821F0030141
:1010000001432160FFF702FF814641F2883A0EE07A
:1010100009688903EFE709688901ECE7FFF7F6FE45
:10102000A0EB0901514502D90320BDE8F0872068F3
:10103000696800F00C00B0EB810FEFD1D8F8001018
:10104000404601F00F01B14207D90770006800F077
:101050000F00B04201D00120E7E72878400705D50E
:101060002068E96820F4E0500843206028780007F1
:1010700006D52068296920F4604040EAC10020605C
:1010800000F058F82168084AC1F30311515CC840C8
:101090000649086006480068FFF7E0FE0020C4E744
:1010A000003C024008380240EC2B000820000020E1
:1010B000180000200F2202600C4A136803F003039B
:1010C0004360136803F0F0038360136803F4E05394
:1010D000C36012684FF4E05303EAD202026104488D
:1010E000006800F00F0008607047000008380240F8
:1010F000003C02400448054900680968044AC1F3FD
:101100008221515CC840704720000020083802400E
:10111000FC2B00080448054900680968044AC1F32B
:101120004231515CC840704720000020083802401E
:10113000FC2B0008154810B5006810F00C0214488C
:1011400013D01449042A0FD0082A0ED10F4C241FA3
:101150002268236802F03F025B0207D52068C0F3D3
:101160008810A0FB010106E0084610BD2168C1F30C
:101170008811A1FB00010023FFF794F82168C1F357
:101180000141491C4900B0FBF1F010BD0838024094
:101190000024F400001BB7002DE9F84F04006ED0C6
:1011A0002078DFF83C93C007A9F104054AD009F183
:1011B00004000168C1F38101012908D00068C0F36F
:1011C000810002280AD1D9F80000400206D528681B
:1011D000800337D560680028E1D033E06068B0F55F
:1011E000803F10D0B0F5A02F286810D020F48030B8
:1011F0002860286820F4802028606068A8B1FFF784
:1012000005FE06460DE0286840F48030F4E740F41F
:1012100080202860F7E700BFFFF7F8FD801B6428F7
:1012200073D828688003F7D50CE0FFF7EFFD06467A
:1012300005E000BFFFF7EAFD801B6428F0D82868AE
:101240008003F7D42078DFF89C8280074FF0000AF3
:101250003ED5A348001D016811F00C0F08D00068AE
:10126000C0F3810002280BD1D9F80000400207D456
:101270002868800716D5E068012800D112E02BE12C
:10128000E068B8B10120C8F80000FFF7BFFD0646CE
:1012900005E000BFFFF7BAFD801B0228C0D8286810
:1012A0008007F7D52868216920F0F80040EAC100DE
:1012B00028600DE0C8F800A0FFF7A8FD064604E08E
:1012C000FFF7A4FD801B02281FD828688007F7D4E9
:1012D0002078000722D5824E83486169703671B14B
:1012E00001210160FFF792FD074604E0FFF78EFD44
:1012F000C01B022809D830688007F7D50EE0C0F877
:1013000000A0FFF783FD074605E082E0FFF77EFDC2
:10131000C01B02287DD830688007F7D420784007AA
:1013200068D5DFF8BCB100270BF13C0BDBF80000FF
:10133000C0000BD4DBF8001041F08051CBF8001056
:10134000DBF80000012700F080500090674E306805
:10135000C00510D4306840F480703060FFF756FD4F
:10136000009005E0FFF752FD0099401A022850D87E
:101370003068C005F6D55A4EA0686C3601280FD0EB
:101380000528306810D020F001003060306820F06F
:1013900004003060A068B8B1FFF738FD00900FE09E
:1013A000306840F00100F4E740F004003060F7E7F7
:1013B000FFF72CFD0099411A41F28830814266D82E
:1013C00030688007F4D50EE0FFF720FD009007E0BD
:1013D000FFF71CFD0099411A41F28830814256D82E
:1013E00030688007F4D42FB1DBF8001021F0805171
:1013F000CBF80010A069C8B33949091D0968C1F3C9
:10140000810102294AD00228504607D0C8F860005E
:1014100000E03CE0FFF7FAFC04463BE04746C8F832
:101420006000FFF7F3FC064605E000BFFFF7EEFCA7
:10143000801B02282BD828688001F7D4D4E9070143
:101440000843A16A2A4A490802EB0141626A41EA5B
:101450008211084394F82C1040EA0161C9F8001089
:1014600001203866FFF7D2FC044606E036E000BFF4
:10147000FFF7CCFC001B022809D828688001F7D5AB
:101480002CE000BFFFF7C2FC001B022802D903209A
:10149000BDE8F88F28688001F4D41FE00128F7D058
:1014A000D9F80000E26900F48001914214D1226A67
:1014B00000F03F0191420FD147F6C071626A0140CE
:1014C000914209D1A26A00F44031914204D1E16A0B
:1014D00000F07060884201D00120D9E70020D7E7F2
:1014E0000438024000004742800E4742007000402E
:1014F0000000FFFF7047704710B5040003D094F858
:101500003D0010B107E0012010BD002084F83C0030
:10151000204600F00CF8022084F83D00211D2068D0
:1015200000F076FB012084F83D00002010BD7047DC
:101530000168CA6842F00102CA600068816801F06F
:101540000701062903D0016841F001010160002074
:101550007047704770B50446006801694FF0000598
:10156000C943890715D4C168C943890711D4E91E45
:10157000016101202077206880698007204602D021
:10158000FFF7E7FF04E000F098F8204600F096F837
:10159000257720680169C943490717D4C168C94341
:1015A000490713D46FF004010161022020772068FD
:1015B000806910F4407F204602D0FFF7CAFF04E0A4
:1015C00000F07BF8204600F079F825772068016963
:1015D000C943090716D4C168C943090712D46FF07B
:1015E00008010161042020772068C0698007204637
:1015F00002D0FFF7AEFF04E000F05FF8204600F0F5
:101600005DF8257720680169C943C90617D4C16808
:10161000C943C90613D46FF0100101610820207777
:101620002068C06910F4407F204602D0FFF791FF88
:1016300004E000F042F8204600F040F825772068EA
:101640000169C943C90708D1C168C943C90704D1A1
:10165000891E0161204600F033F820680169C94302
:10166000090609D4C168C943090605D46FF0800191
:1016700001612046FFF73EFF20680169C943490622
:1016800009D4C168C943490605D46FF0400101611E
:10169000204600F01FF820680169C94389060BD471
:1016A000C168C943890607D46FF020010161204653
:1016B000BDE87040FFF71FBF70BD70477047000066
:1016C00000680349884201D1FFF7A6BB70470000BC
:1016D000000001407047704770B50268044610680A
:1016E000D168536910F00F0F53D003F0010501F4D6
:1016F00090762E435FD0C20705D0CA0503D5E26BB2
:1017000042F00102E263420705D5DA0703D0E26B3B
:1017100042F00202E263820705D5DA0703D0E26BEA
:1017200042F00402E263020707D501F020022A43D7
:1017300003D0E26B42F00802E263E26B002A34D08D
:10174000800604D5880602D5204600F0E1FA20681C
:101750004069E16BC0F3801001F0080101432046AD
:1017600024D000F0C7FA2068416949061AD54169BA
:1017700021F040014161606BA0B11B490165606BC4
:10178000FFF72FFA002810D0606B016DBDE87040A4
:10179000084783060FD58B060DD52046BDE870405F
:1017A00000F0B6BA2046FFF796FF70BDFFF793FF33
:1017B0000020E06370BD030606D50B0604D5204665
:1017C000BDE8704000F084BB4006F3D54806F1D573
:1017D000D168204621F04001D160202184F83910E1
:1017E00000F0D0F870BD0000E51C000870B50400E2
:1017F00004D094F83900002510B106E0012070BD36
:1018000084F83850204600F023F8242084F839006A
:101810002068C16821F40051C160204600F0C4FA7C
:101820002068016921F4904101612068416921F03B
:101830002A0141612068C16841F40051C160E5633B
:10184000202084F8390084F83A00002070BD0000A0
:1018500010B586B0044614216846FEF76DFD1749A1
:101860002068884227D11648016841F00041016094
:10187000006800F00040059011481038016841F000
:10188000100101600068022100F0100005900320A3
:10189000CDE900010121CDE902100820049069463C
:1018A0000848FFF7C3F9002211465320FFF736FB23
:1018B0005320FFF725FB06B010BD0000007C004060
:1018C000403802400010024070472DE9F8430446BA
:1018D00090F839001F4616460D46202850D1B5B164
:1018E000AEB194F8380001284AD0012084F83800BD
:1018F0004FF00008C4F83C80212084F83900FFF73D
:1019000085FAA6848146E68484F8388026E00120A2
:10191000BDE8F883E08C401EE084A0684B46B0F53B
:10192000805F4FF000024FF080012046009703D007
:1019300000F0FFFAE8B90DE000F0FBFAC8B928881A
:101940002168C0F308004860206908B16D1C05E0FB
:10195000AD1C03E0216815F8010B4860E08C0028FD
:10196000D8D14B46002240212046009700F0E1FAF2
:1019700008B10320CCE7202084F839000020C7E715
:101980000220C5E77047FEE70F4810B50D4901601A
:101990000321416000214FF400228160C0E903125D
:1019A0004FF440124261017641768176C17601772B
:1019B0004177FEF7BCFF002803D0BDE81040FEF7DA
:1019C00046BD10BD00640040DC02002010B59CB094
:1019D0001C2216496846FEF796FC0021684600F076
:1019E00064FB134C11491C2220601C3107A8FEF730
:1019F0008AFC002107A800F058FB0C4960601C22FB
:101A000038310EA8FEF77FFC00210EA800F04DFB38
:101A10000649A0601C22543115A8FEF774FC002171
:101A200015A800F042FBE0601CB010BD7C2B000844
:101A3000000000202DE9F04186B014216846FEF731
:101A40007BFC27480024016841F010010160016817
:101A500001F010010591016841F008010160016881
:101A600001F008010591016841F080010160016801
:101A700001F080010591016841F0020101600068F8
:101A8000184F00F00200059000223C213846FFF775
:101A9000B7F9DFF854804FF49046002231464046B3
:101AA000FFF7AEF93C2000900125CDE901546946CD
:101AB00038460394FFF7BAF80420CDE900046946DC
:101AC0000A480294FFF7B2F80096CDE9015469463E
:101AD00040460394FFF7AAF806B0BDE8F081000085
:101AE00030380240001C0240001002400004024056
:101AF0000C4810B50A4901604FF4E1314160002102
:101B000081600C22C160C0E904128161C161FFF7EC
:101B10006DFE002803D0BDE81040FEF798BC10BD54
:101B2000007C004068030020FEE770474FF47A74A1
:101B3000204600F0F9FDFBE710B5502080F3118836
:101B4000BFF34F8FBFF36F8F00F052FF18B10449FE
:101B50004FF080500860002080F3118810BD000015
:101B600004ED00E030B593B030216846FEF7E4FBA9
:101B700014210CA8FEF7E0FB19480025016841F08C
:101B800080510160006800F0805011901548016894
:101B900041F4404101600068022400F4404011908B
:101BA00001200090000401908001CDE9064006204C
:101BB0000890A820CDE9090404200B906846FFF79F
:101BC000EBFA0CA90F2081E831004FF4A0500F90E0
:101BD000E002109005210CA8FFF7D2F913B030BD38
:101BE00040380240007000400548016841F470012F
:101BF000016003494FF000608039086070470000C1
:101C000088ED00E00148FFF7A5BC0000A803002014
:101C1000F0B50268254C264D264E274F274B4FF036
:101C2000804CA04209D0604507D0A84205D0B04200
:101C300003D0B84201D0984204D122F0700E4A6815
:101C400042EA0E02A0421BD0604519D0A84217D02C
:101C5000B04215D0B84213D0984211D0184DA842C6
:101C60000ED0184DA8420BD0174DA84208D0174DE2
:101C7000A84205D0164DA84202D0164DA84203D165
:101C800022F44075CA682A434D6922F080022A4333
:101C900002608A68C2620A688262A04201D09842E9
:101CA00001D10969016301214161F0BD00000140DA
:101CB0000004004000080040000C00400004014007
:101CC000004001400044014000480140001800402D
:101CD000001C0040002000400148FFF7FDBC000050
:101CE0006803002010B5806B0021C185C184FFF717
:101CF000F2FC10BD0168CA6822F49072CA600168E3
:101D00004A6922F001024A61202180F83A107047A6
:101D100010B590F83A10222901D0022010BD816838
:101D2000B1F5805F11D00169002901681FD04968B1
:101D300001F07F03816A4A1C82620B70C18D491ECB
:101D40000904090CC18518D02BE00269816A002AB8
:101D50000268526805D0D2B20A80816A491C816249
:101D6000ECE7C2F308020A80816A891CF7E74A6837
:101D7000816A4B1C83620A70E0E70168CA6822F03E
:101D80002002CA600168CA6822F48072CA600168D1
:101D90004A6922F001024A61202180F83A10FFF7D7
:101DA00093FD002010BD00002DE9F04104460068BD
:101DB0000169E26821F44051114301612169A06881
:101DC000E26908436169114308432168CA6849F21E
:101DD0000C639A430243CA6020684169A26921F4F6
:101DE000407111434161E069192764253226B0F53D
:101DF000004F354A354920684FF0000806D0884228
:101E000001D0904236D1FFF785F935E0884201D004
:101E1000904202D1FFF77EF901E0FFF76BF96168AC
:101E20004A18A0FB070148EB0803FEF73BFA0146FE
:101E3000B0FBF5F00201B1FBF5F06FF01803584369
:101E400001EB800006EBC000B0FBF5F000F0F800FD
:101E500002EB4002B1FBF5F0584301EB800006EBCA
:101E6000C000B0FBF5F000F0070021681044886066
:101E7000BDE8F081FFF73EF961688B0F8A00A0FB97
:101E80000701FEF70FFA0146B0FBF5F06FF01802FC
:101E9000504301EB800006EB0010B0FBF5F000F0C2
:101EA000F002B1FBF5F002EB0012B1FBF5F06FF0C0
:101EB0001803584301EB800006EB0010B0FBF5F06F
:101EC00000F00F00D1E700000014014000100140B5
:101ED00090F83910212901D0022070478168B1F5AE
:101EE000805F016A0BD04A1C026202680978516067
:101EF000C18C491E0904090CC1840ED017E0098861
:101F00000268C1F30801516001690029016A02D029
:101F1000491C0162ECE7891CFBE70168CA6822F0F2
:101F20008002CA600068C16841F04001C1600020C1
:101F300070472DE9F041984617460E460446069D27
:101F40001DE0681C1BD02DB1FEF760FFA0EB080060
:101F5000A84214D92068C16821F4D071C1602068FA
:101F6000416921F001014161202084F8390084F8A1
:101F70003A00002084F838000320BDE8F081206892
:101F8000006836EA000004D00020B842D9D0002012
:101F9000F3E70120F9E7FEE7014A024900F023B820
:101FA00009200008840000200907090E002804DB2E
:101FB00000F1E02080F80014704700F00F0000F1FD
:101FC000E02080F8141D704702E008C8121F08C105
:101FD000002AFAD170477047002001E001C1121FAA
:101FE000002AFBD170472DE9F04116460F46044602
:101FF000002503E03946B047641C6D1C207800289A
:10200000F8D12846BDE8F08108B502238DF800001C
:10201000012269460248FFF758FC002008BD000075
:1020200068030020FEF700FFFFF79CFDFFF702FDAD
:10203000FFF7AAFCFFF75CFD0348FEF7C1F9FFF7C5
:10204000C5FC00F02DF8FEE7DC0200200146002070
:10205000842900D0C81C704708B54FF47A7640F246
:1020600003344FF400753246134621462846009645
:1020700000F06EFA012000F057FBF4E708B51F26C8
:102080004FF47A7440F2FF151F231A462146284662
:10209000009600F05DFA012000F046FBF4E7FEE751
:1020A00010B500F067FB002010BD7FB50D4604465B
:1020B0004169B0F9080081B1A16971B1FFF7C6FFAC
:1020C000D4E905128DE80700D4E900102B462269F7
:1020D00000F063FC039004B070BDFFF7B7FF03A9E5
:1020E000CDE90001208A2B4682B2D4E9001000F02D
:1020F00027FC012801D00020EDE70398EBE7000062
:102100002DE9F041184C0F46054666692068001D10
:1021100000F046FA38B9206890F82C100120884069
:10212000A1698143A161681C07D137B12168BDE86D
:10213000F0410E48091D00F077BA20683544B542D9
:102140004560216805D2A068BDE8F041091D00F096
:1021500053BA6068091D00F04FFA206B854200D227
:102160002563BDE8F081000024000020C4040020A5
:102170002DE9F041054600F063FA2E4C2069401C21
:10218000206120682C4F10B1E06940B32DE025603C
:102190002069012829D1002606EB860007EB800084
:1021A00000F01CFA761C072EF6D323488C3000F082
:1021B00015FA2148A03000F011FA1F48B43000F0A1
:1021C0000DFA1D48C83000F009FA1B48DC3000F059
:1021D00005FA19488C3060601430A06005E0206872
:1021E000E96AC06A884200D82560E06A401CE06263
:1021F000E96A0120A26988401043A06101EB8100D7
:1022000007EB8000291D00F00FFA00F039FAE069B1
:1022100000280CD02068E96AC06A884207D20749C2
:102220004FF080500860BFF34F8FBFF36F8FBDE852
:10223000F081000024000020E803002004ED00E00D
:1022400010B5044690F8510058B101280CD002286E
:102250000FD0502080F31188BFF34F8FBFF36F8FE3
:10226000FEE7206B00F020FA2046BDE8104000F0A9
:102270001BBA10BD10484FF47051420706D0C01D64
:102280000D4920F00700411AC1F570510B4A002397
:102290000144C2E900030839103A21F00701116036
:1022A0004B600B600B1AC0E9001393604FF00040C5
:1022B0005360D06070470000D804002070000020F8
:1022C000144E154CA6F1C8074FF08058DFF84C901B
:1022D00012E000BF00F0B4F9F068C568281D00F0F6
:1022E0005FF92069401E2061E068401EE06000F058
:1022F000C7F92846FFF7A4FFE0680028EAD138684C
:102300000128F9D9C9F80080BFF34F8FBFF36F8F51
:10231000F2E70000B00400202400002004ED00E0FB
:102320002DE9F0479A46DDE9098481466FF0030301
:10233000206B03EB82021044089E20F00707780709
:1023400007D0502080F31188BFF34F8FBFF36F8FFA
:10235000FEE7002561B1002023180A5C83F83420D1
:102360000A5C12B1401C1028F6D384F8435001E0F7
:1023700084F83450072E00D30626E662C4E91165BE
:10238000201D00F036F904F1180000F032F9246144
:10239000C6F107006462A061E56484F850505246BB
:1023A0004946384600F0BEF82060B8F1000F01D071
:1023B000C8F80040BDE8F08730B5114900E011468B
:1023C0000A688242FBD34B685C18844203D14068A0
:1023D00018444860084643681C18944209D1084CC8
:1023E000103C2468A24209D052681A4442600A682C
:1023F00012680260814200D0086030BD0460F9E7D5
:102400007000002006484168096829B14168C96820
:10241000C9684968016370474FF0FF31FAE700006F
:102420002400002008484068401C4FF0500080F312
:10243000118804D0BFF34F8FBFF36F8FFEE7BFF358
:102440004F8FBFF36F8FFEE7780000202DE9F0413A
:102450000546002700F0C4F9314E306808B9FFF78F
:1024600009FFF06805424BD1C5B3083568070ED0A7
:1024700005F00700C0F108000544680707D05020A8
:1024800080F31188BFF34F8FBFF36F8FFEE72DB33B
:102490007068854234D82248103001460C6801E04B
:1024A00020460C466168A94202D221680029F7D172
:1024B00031688C4224D00768216801606068083761
:1024C000411B10290FD96019420708D0502080F312
:1024D0001188BFF34F8FBFF36F8FFEE710E04160AD
:1024E0006560FFF769FF61687068401A7060B268E4
:1024F000904200D2B060F06801430020C4E90001BE
:1025000000F0DAFA780707D0502080F31188BFF383
:102510004F8FBFF36F8FFEE73846BDE8F0810000B4
:102520006000002010B5031F4FF080741C601B1F5B
:1025300021F001011960191F044B0B6014390A6066
:10254000091F6FF0020244380A6010BD25240008FC
:1025500010B588B0029000200A9C049005900820D5
:102560000690080A8DF800008DF80110100A8DF809
:102570000200180A8DF804008DF80530200A8DF845
:1025800006008DF803208DF8074001236A4602A952
:102590000248FDF76FFF08B010BD0000DC0200200C
:1025A000D0E9013201699A60D0E901235A604A6892
:1025B000824201D182684A60002202610868401E9E
:1025C0000860086870470000034B036003F1540083
:1025D00008608020106070478800002000F108012A
:1025E0004FF0FF32C0E90112C160016100210160BA
:1025F000704700210161704730B50B685A1C02D04A
:1026000000F1080202E0026904E0224654682568ED
:102610009D42FAD953684B6099608A6051600861A5
:102620000168491C016030BD42684A6093688B6054
:1026300093685960916008610168491C01607047A6
:10264000502080F31188BFF34F8FBFF36F8F0A497B
:102650004868401C486001280CD10848006810F008
:10266000FF0F07D0502080F31188BFF34F8FBFF3C7
:102670006F8FFEE7704700007800002004ED00E057
:102680000849486828B1401E486001D180F311888C
:102690007047502080F31188BFF34F8FBFF36F8FC7
:1026A000FEE700007800002070B5002827D0144D08
:1026B000A0F108046168E868014207D1502080F366
:1026C0001188BFF34F8FBFF36F8FFEE722683AB1D7
:1026D000502080F31188BFF34F8FBFF36F8FFEE759
:1026E0008143616000F07CF8606869680844686054
:1026F0002046FFF761FEBDE8704000F0DDB970BD17
:10270000600000204FF0E020002101618161054957
:102710004FF47A720968B1FBF2F1491E4161072159
:10272000016170472000002010B5020014D00F484E
:10273000806B38B1502080F31188BFF34F8FBFF307
:102740006F8FFEE700F04CF800211046FFF7D8FC31
:1027500000F0B2F9002807D105494FF08050086019
:10276000BFF34F8FBFF36F8F10BD00002400002018
:1027700004ED00E010B586B00024039405AA04A976
:1027800003A80494FFF720FFDDE903010094CDE9DD
:10279000011000230EA11048059A00F0FEF80F4921
:1027A0000028486311D0502080F31188BFF34F8F69
:1027B000BFF36F8F4FF0FF3008630120C8614C6199
:1027C00006B0BDE8104000F041B806B010BD0000F2
:1027D00049444C4500000000C122000824000020AC
:1027E0000248816B491C816370470000240000206F
:1027F0001448816B11B1012141627047002141628F
:102800008169B1FA81F1C1F11F0101EB81020E4929
:1028100051F822306BB101EB820101F108034A68E3
:1028200052684A609A4201D152684A60D168016098
:102830007047502080F31188BFF34F8FBFF36F8F25
:10284000FEE7000024000020E80300201CB5374804
:102850000168374A914207D1502080F31188BFF3B5
:102860004F8FBFF36F8FFEE700683149491E8842E2
:1028700007D1502080F31188BFF34F8FBFF36F8FC4
:10288000FEE72C4908780190FF20087008788DF841
:1028900000009DF800009DF8002000F0F00090423C
:1028A00007D0502080F31188BFF34F8FBFF36F8F95
:1028B000FEE79DF80000204B00F050001870072044
:1028C000986005E09DF8002052008DF80020401E21
:1028D0009DF800201206F5D49860032807D05020F8
:1028E00080F31188BFF34F8FBFF36F8FFEE74FF474
:1028F00040709860019808700C482030016841F4DD
:1029000070010160016841F070410160FFF7FAFE5B
:1029100000205860FDF778FC0848016841F040410C
:102920000160FDF75DFC00201CBD000000ED00E033
:1029300071C20F4100E400E07800002034EF00E0B5
:102940002DE9FF5F8346DDE90E87994616468A46E4
:102950009000FFF77BFD05001CD05420FFF776FDAB
:10296000040014D00020256384F85100CDE9024012
:10297000CDE900874B46324651465846FFF7D0FC1A
:102980002046FFF7F5FB012004B0BDE8F09F284684
:10299000FFF78AFE4FF0FF30F6E7F0B585B0DDE9CE
:1029A0000B640A9DA6B1DCB154270097266302266A
:1029B00084F85160002604AFCDE90246CDE9005706
:1029C000FFF7AEFC2046FFF7D3FB049805B0F0BD3F
:1029D000502080F31188BFF34F8FBFF36F8FFEE756
:1029E000502080F31188BFF34F8FBFF36F8FFEE746
:1029F0002DE9F0412E4C0027A06B40B1206A401C0D
:102A00002062606A00B101273846BDE8F08166693E
:102A1000761C666113D16068006838B1502080F37D
:102A20001188BFF34F8FBFF36F8FFEE76068A16817
:102A30006160A060A06A401CA062FFF7E3FC206B0D
:102A4000DFF87080864209D36068006880B16068F2
:102A5000C068C568686886420DD220632068C06A75
:102A600000EB800158F821000128CAD90127C8E7E6
:102A70004FF0FF30F1E7281DFFF792FDA86A18B16B
:102A800005F11800FFF78CFDE86A0121A269814079
:102A90001143A16100EB800108EB8100291DFFF7C4
:102AA000C3FDE86A2168C96A8842CDD30127CBE714
:102AB00024000020E80300202DE9F0472C4D0024DD
:102AC0002746A86B38B1FFF7BBFDA86B401EA86373
:102AD000A86B40B146E0502080F31188BFF34F8FC0
:102AE000BFF36F8FFEE72969224E0120D1B3A6F113
:102AF000B40980463068E8B1F068C46804F1180091
:102B0000FFF74EFD201DFFF74BFDE06AAA6908FAAA
:102B100000F11143A96100EB800109EB8100211D47
:102B2000FFF782FDE06A2968C96A8842E2D3C5F8E6
:102B30002480DFE70CB1FFF765FC2C6A44B1464600
:102B4000FFF756FF00B16E62641EF9D100202862C3
:102B5000686A38B10849012738070860BFF34F8F0A
:102B6000BFF36F8FFFF78CFD3846BDE8F08700009C
:102B7000240000209C04002004ED00E0282C000824
:102B80002D1B000800000000000000008000000075
:102B90000000000000000000042C00087D20000858
:102BA000FDFF0000000000008000000000000000A9
:102BB00000000000102C000859200008FDFF000054
:102BC0000000000080000000000000000000000085
:102BD0001C2C00089F200008FDFF000000000000E2
:102BE0008000000000000000000000000000000065
:102BF00000000000010203040607080900000000AD
:102C0000010203046D79363632335461736B000070
:102C10006D79323030365461736B00006D794C45FC
:102C2000445461736B00000064656661756C745494
:102C300061736B00542C0008000000208800000025
:102C4000C81F0008DC2C0008880000205044000049
:102C5000D81F000800000000000000000000000075
:102C60000000000000000000010000001000000053
:102C7000000000000024F40000000000000000003C
:102C80000000000000000000000000000000000044
:102C90000000000000000000000000000000000034
:102CA0000000000000000000000000000000000024
:102CB0000000000000000000000000000000000014
:102CC0000000000000000000000000000000000004
:0C2CD000AAAAAAAA000000000000000050
:04000005080001AD41
:00000001FF
